:020000040800F2
:100000000028002051120008E1110008E711000843
:10001000ED110008F3110008F911000800000000BC
:10002000000000000000000000000000FF110008B8
:100030000B1200080000000017120008231200082D
:1000400099120008991200089912000899120008E4
:1000500099120008991200089912000899120008D4
:1000600099120008991200089912000899120008C4
:1000700099120008991200089912000899120008B4
:1000800099120008991200089912000899120008A4
:100090009912000899120008991200089912000894
:1000A0009912000899120008991200089912000884
:1000B000311200089912000800000000991200088F
:1000C00099120008000000000000000099120008CA
:1000D00000000000991200089912000800000000BA
:1000E00099120008991200089912000800000000F7
:1000F0000000000000000000000000000000000000
:0C01000000000000000000005FF808F1A3
:10010C0010B5054C237833B9044B13B10448AFF345
:10011C0000800123237010BD44000020000000006B
:10012C00C028000808B5034B1BB103490348AFF3C3
:10013C00008008BD0000000048000020C028000816
:10014C0080B400AF064B1B68012B04D1044B00227A
:10015C001A60012300E000231846BD4680BC70479E
:10016C006400002080B400AF064B1B68012B04D147
:10017C00044B00221A60012300E000231846BD4600
:10018C0080BC70476800002080B400AF064B1B6831
:10019C00012B04D1044B00221A60012300E0002340
:1001AC001846BD4680BC70476C00002080B400AF80
:1001BC0000231846BD4680BC704780B400AF0023B6
:1001CC001846BD4680BC704780B400AF034B01227B
:1001DC001A6000BFBD4680BC704700BF64000020A1
:1001EC0080B400AF034B01221A6000BFBD4680BC37
:1001FC00704700BF6800002080B400AF034B0122A1
:10020C001A6000BFBD4680BC704700BF6C00002068
:10021C0080B500AF224B1B68224A1360224B1B682F
:10022C001F4A13604FF40051204801F01BFB03469A
:10023C001A461D4B1A601B4B1A68194B1B689A42C5
:10024C002BD1174B1A68184B1B689A4225D1184BA7
:10025C001A68154B1B689A420DD0134B1B68144A35
:10026C001360114B1B68002B17D1FFF7ADFF114B1F
:10027C0000221A6011E00F4B1B68013B0D4A136002
:10028C000C4B1B68002B08D1074B1B68002B01D1B2
:10029C00FFF79AFF074B00221A6000BF80BD00BF1A
:1002AC00040000200000002008000020000C014089
:1002BC000C0000206000002080B500AF224B1B68B2
:1002CC00224A1360224B1B681F4A13604FF4804173
:1002DC00204801F0C7FA03461A461D4B1A601B4B07
:1002EC001A68194B1B689A422CD1174B1A68184B79
:1002FC001B689A4226D1184B1A68154B1B689A42F8
:10030C000ED0134B1B68144A1360114B1B68002B47
:10031C0018D1FFF765FF114B4FF496721A6011E07C
:10032C000E4B1B68013B0D4A13600C4B1B68002BDA
:10033C0008D1074B1B68002B01D1FFF751FF074B6E
:10034C0064221A6000BF80BD180000201400002039
:10035C001C000020000C0140200000201000002098
:10036C0080B500AF224B1B68224A1360224B1B68DE
:10037C001F4A13604FF40041204801F073FA034602
:10038C001A461D4B1A601B4B1A68194B1B689A4274
:10039C002CD1174B1A68184B1B689A4226D1184B54
:1003AC001A68154B1B689A420ED0134B1B68144AE3
:1003BC001360114B1B68002B18D1FFF71DFF114B5D
:1003CC004FF496721A6011E00E4B1B68013B0D4AFC
:1003DC0013600C4B1B68002B08D1074B1B68002BC0
:1003EC0001D1FFF709FF074B64221A6000BF80BDE3
:1003FC002C0000202800002030000020000C0140C0
:10040C00340000202400002080B582B000AF78605A
:10041C000A2000F017FE7B68092B00F27F8101A2F5
:10042C0052F823F059040008A1040008E90400085C
:10043C003105000879050008C10500080906000807
:10044C005106000899060008E10600080022012167
:10045C00B54801F01EFA00220221B34801F019FA46
:10046C0000220421B04801F014FA00220821AE4801
:10047C0001F00FFA00221021AB4801F00AFA002219
:10048C002021A94801F005FA01224021A64801F0DB
:10049C0000FA44E101220121A34801F0FAF90022FB
:1004AC000221A14801F0F5F9002204219E4801F037
:1004BC00F0F9012208219C4801F0EBF901221021EE
:1004CC00994801F0E6F901222021974801F0E1F961
:1004DC0001224021944801F0DCF920E100220121A5
:1004EC00914801F0D6F9002202218F4801F0D1F990
:1004FC00012204218C4801F0CCF9002208218A4801
:10050C0001F0C7F900221021874801F0C2F901223D
:10051C002021854801F0BDF900224021824801F0DC
:10052C00B8F9FCE0002201217F4801F0B2F9002269
:10053C0002217D4801F0ADF9002204217A4801F036
:10054C00A8F900220821784801F0A3F90122102112
:10055C00754801F09EF901222021734801F099F9A8
:10056C0000224021704801F094F9D8E001220121C9
:10057C006D4801F08EF9002202216B4801F089F9D7
:10058C0000220421684801F084F901220821664800
:10059C0001F07FF901221021634801F07AF9002261
:1005AC002021614801F075F9002240215E4801F0DC
:1005BC0070F9B4E0002201215B4801F06AF90122D4
:1005CC000221594801F065F900220421564801F036
:1005DC0060F900220821544801F05BF90122102136
:1005EC00514801F056F9002220214F4801F051F9F1
:1005FC00002240214C4801F04CF990E000220121EE
:10060C00494801F046F901220221474801F041F91D
:10061C0000220421444801F03CF900220821424800
:10062C0001F037F9002210213F4801F032F9002285
:10063C0020213D4801F02DF9002240213A4801F0DB
:10064C0028F96CE000220121374801F022F9002240
:10065C000221354801F01DF900220421324801F035
:10066C0018F901220821304801F013F90122102158
:10067C002D4801F00EF9012220212B4801F009F937
:10068C0001224021284801F004F948E00022012110
:10069C00254801F0FEF800220221234801F0F9F868
:1006AC0000220421204801F0F4F8002208211E4801
:1006BC0001F0EFF8002210211B4801F0EAF80022AB
:1006CC002021194801F0E5F800224021164801F0DC
:1006DC00E0F824E000220121134801F0DAF80022AE
:1006EC000221114801F0D5F8002204210E4801F036
:1006FC00D0F8002208210C4801F0CBF8012210217F
:10070C00094801F0C6F800222021074801F0C1F881
:10071C0000224021044801F0BCF800E000BF00BFFB
:10072C000837BD4680BD00BF000C014080B500AF4E
:10073C00984B1B68052B00F23A8301A252F823F068
:10074C006507000865080008A50A0008AD0900083F
:10075C00F10B0008ED0C00080020FFF755FE8E4B46
:10076C001B68012B0ED18D4B09221A608B4B1B6819
:10077C001846FFF749FE874B05221A604FF47A7032
:10078C0000F044FCFFF7DCFC0346012B0FD1834B3C
:10079C0000221A60814B1B681846FFF735FE7D4B13
:1007AC0000221A6042F2107000F030FC01E3FFF7F7
:1007BC00D9FC0346012B0FD1784B01221A60774BE1
:1007CC001B681846FFF720FE724B01221A6042F29A
:1007DC00107000F01BFCECE2FFF7D6FC0346012B7B
:1007EC000FD16E4B00221A606C4B1B681846FFF73A
:1007FC000BFE684B02221A6042F2107000F006FCED
:10080C00D7E2FFF7D3FC0346012B0FD1634B012238
:10081C001A60624B1B681846FFF7F6FD5D4B03220E
:10082C001A6042F2107000F0F1FBC2E2FFF7C5FC57
:10083C000346012B40F0BD82584B09221A60574BDE
:10084C001B681846FFF7E0FD524B04221A6042F277
:10085C00107000F0DBFBACE24F4B1B68012B18D186
:10086C004E4B1B68013B4D4A13604C4B1B68B3F15C
:10087C00FF3F02D1494B00221A60484B1B681846B7
:10088C00FFF7C2FD434B05221A604FF47A7000F05B
:10089C00BDFBFFF755FC0346012B0FD13F4B00224C
:1008AC001A603E4B1B681846FFF7AEFD394B002211
:1008BC001A6042F2107000F0A9FB7CE2FFF752FCC8
:1008CC000346012B18D1354B1B680133334A136097
:1008DC00324B1B680A2B02D1304B00221A602F4B73
:1008EC001B681846FFF790FD2A4B01221A6042F252
:1008FC00107000F08BFB5EE2FFF746FC0346012B09
:10090C0011D1264B1B68013B244A1360234B1B68F7
:10091C001846FFF779FD1F4B02221A6042F2107045
:10092C0000F074FB47E2FFF741FC0346012B18D1A2
:10093C001A4B1B680133194A1360184B1B680A2B9E
:10094C0002D1164B00221A60144B1B681846FFF795
:10095C005BFD104B03221A6042F2107000F056FB44
:10096C0029E2FFF72AFC0346012B40F024820B4BB3
:10097C001B68013B094A1360084B1B681846FFF7BC
:10098C0043FD044B04221A6042F2107000F03EFB4F
:10099C0011E200BF740000207C00002070000020D9
:1009AC00FFF704FC0346012B17D18B4B1B6801335B
:1009BC00894A1360884B1B680A2B02D1864B002294
:1009CC001A60854B1B681846FFF71EFD834B0322EC
:1009DC001A6042F2107000F019FBFFF7EEFB0346B1
:1009EC00012B10D17C4B1B68013B7B4A13607A4B6B
:1009FC001B681846FFF708FD784B04221A6042F278
:100A0C00107000F003FBFFF79BFB0346012B0ED18C
:100A1C00714B00221A60704B1B681846FFF7F4FCF0
:100A2C006E4B00221A6042F2107000F0EFFAFFF7E2
:100A3C0099FB0346012B17D1674B1B680133664AA0
:100A4C001360654B1B680A2B02D1634B00221A60A2
:100A5C00614B1B681846FFF7D7FC604B01221A60EC
:100A6C0042F2107000F0D2FAFFF78EFB0346012B16
:100A7C0040F0A381584B1B68013B574A1360564BFF
:100A8C001B681846FFF7C0FC544B02221A6042F256
:100A9C00107000F0BBFA90E1514B1B68012B18D180
:100AAC004D4B1B68013B4C4A13604B4B1B68B3F11D
:100ABC00FF3F02D1484B00221A60474B1B68184677
:100ACC00FFF7A2FC454B05221A604FF47A7000F038
:100ADC009DFAFFF735FB0346012B0FD13E4B00224D
:100AEC001A603D4B1B681846FFF78EFC3B4B0022EF
:100AFC001A6042F2107000F089FA60E1FFF732FBE5
:100B0C000346012B11D1344B1B680133324A13605D
:100B1C00314B1B681846FFF777FC304B01221A60EB
:100B2C0042F2107000F072FA49E1FFF72DFB034618
:100B3C00012B19D1284B1B68013B274A1360264B0C
:100B4C001B68B3F1FF3F02D1234B09221A60224BE1
:100B5C001B681846FFF758FC204B02221A6042F221
:100B6C00107000F053FA2AE1FFF720FB0346012B2B
:100B7C0011D1194B1B680133174A1360164B1B68B4
:100B8C001846FFF741FC154B03221A6042F2107015
:100B9C0000F03CFA13E1FFF710FB0346012B40F089
:100BAC000E810D4B1B68013B0B4A13600A4B1B68F3
:100BBC00B3F1FF3F02D1084B09221A60064B1B68A8
:100BCC001846FFF721FC054B04221A6042F2107004
:100BDC0000F01CFAF3E000BF70000020740000204D
:100BEC007C000020FFF7ACFA0346012B0ED1774BAB
:100BFC0000221A60754B1B681846FFF705FC744BF6
:100C0C0000221A6042F2107000F000FAFFF7AAFA04
:100C1C000346012B10D16D4B1B6801336B4A1360DB
:100C2C006A4B1B681846FFF7EFFB694B01221A60F1
:100C3C0042F2107000F0EAF9FFF7A6FA0346012B16
:100C4C0018D1624B1B68013B604A13605F4B1B68F9
:100C5C00B3F1FF3F02D15D4B09221A605B4B1B685D
:100C6C001846FFF7D1FB5A4B02221A6042F2107061
:100C7C0000F0CCF9FFF79AFA0346012B10D1534B35
:100C8C001B680133514A1360504B1B681846FFF721
:100C9C00BBFB4F4B03221A6042F2107000F0B6F906
:100CAC00FFF78BFA0346012B40F08B80474B1B68F8
:100CBC00013B464A1360454B1B68B3F1FF3F02D121
:100CCC00424B09221A60414B1B681846FFF79CFBEC
:100CDC003F4B02221A6042F2107000F097F970E05C
:100CEC003C4B1B68012B16D1384B1B68013B374A18
:100CFC001360364B1B68B3F1FF3F02D1334B092213
:100D0C001A60324B1B681846FFF77EFB4FF47A7063
:100D1C0000F07CF957E0FFF713FA0346012B0AD1D8
:100D2C002A4B00221A602A4B00221A6042F21070E1
:100D3C0000F06CF947E0FFF715FA0346012B18D1C8
:100D4C00224B1B680133214A1360204B1B680A2B72
:100D5C0002D11E4B00221A601C4B1B681846FFF771
:100D6C0053FB1B4B01221A6042F2107000F04EF93B
:100D7C0029E0FFF709FA0346012B24D1134B1B681A
:100D8C00013B124A1360114B1B68002B02D10F4B15
:100D9C0009221A600D4B1B681846FFF735FB0C4BEC
:100DAC0002221A6042F2107000F030F90BE000BF22
:100DBC000AE000BF08E000BF06E000BF04E000BF8F
:100DCC0002E000BF00E000BF00BF80BD700000204B
:100DDC00740000207C00002080B500AF00F058FAB1
:100DEC0000F016F800F09CF800F04EF8054801F001
:100DFC00A1F9054B00221A60044B00221A60FFF780
:100E0C0095FCFCE79C00002074000020980000205A
:100E1C0080B590B000AF07F11803282200211846C6
:100E2C0001F040FD3B1D00221A605A609A60DA60A6
:100E3C001A610223BB610123BB621023FB620023F6
:100E4C007B6307F11803184600F03CFD0346002BAA
:100E5C0001D000F0D5F80F237B600023BB6000238A
:100E6C00FB6000233B6100237B613B1D0021184686
:100E7C0000F0A8FF0346002B01D000F0C1F800BF22
:100E8C004037BD4680BD000080B586B000AF07F18D
:100E9C00080300221A605A609A60DA603B4600220E
:100EAC001A605A601D4B4FF080421A601B4B41F682
:100EBC003F725A60194B00229A60184B0922DA6073
:100ECC00164B00221A61154B00229A61134801F04F
:100EDC00E1F80346002B01D000F092F84FF4805358
:100EEC00BB6007F1080319460C4801F077FA03467A
:100EFC00002B01D000F084F800233B6000237B60C2
:100F0C003B461946054801F03FFC0346002B01D037
:100F1C0000F076F800BF1837BD4680BD9C0000205D
:100F2C0080B586B000AF07F1080300221A605A6042
:100F3C009A60DA60274B9B69264A43F0040393615D
:100F4C00244B9B6903F004037B607B68214B9B69FA
:100F5C00204A43F0080393611E4B9B6903F008037E
:100F6C003B603B68002220211B4800F092FC0022D1
:100F7C007F211A4800F08DFC2023BB600123FB600D
:100F8C0000233B6102237B6107F1080319461248D9
:100F9C0000F0EEFA7F23BB600123FB6000233B6172
:100FAC0002237B6107F1080319460C4800F0E0FAB4
:100FBC004FF46043BB600023FB6001233B6107F1EE
:100FCC0008031946054800F0D3FA00BF1837BD4690
:100FDC0080BD00BF0010024000080140000C014021
:100FEC0080B582B000AF786000F048F8FFF710F9D8
:100FFC00FFF762F9FFF7B4F900BF0837BD4680BDB3
:10100C0080B400AF72B600BFFEE7000080B483B0BE
:10101C0000AF78607B68084A82FB03129210DB17E2
:10102C00D31A064A1360064B00221A6000BF0C3715
:10103C00BD4680BC704700BF6766666678000020BE
:10104C007C00002080B483B000AF78607B68084AD5
:10105C0082FB03129210DB17D31A064A1360064B5D
:10106C0000221A6000BF0C37BD4680BC704700BF21
:10107C0067666666900000209400002080B400AF84
:10108C00214B1B68002B0BDD1F4B1B68013B1E4AC1
:10109C0013601D4B1B68002B02DC1C4B01221A60D9
:1010AC001B4B1B68002B0BDD194B1B68013B184AB3
:1010BC001360174B1B68002B02DC164B01221A60C5
:1010CC00154B1B68002B0BDD134B1B68013B124AA5
:1010DC001360114B1B68002B02DC104B01221A60B1
:1010EC000F4B1B68002B0BDD0D4B1B68013B0C4A97
:1010FC0013600B4B1B68002B02DC0A4B01221A609D
:10110C0000BFBD4680BC7047780000207C000020EA
:10111C008000002084000020880000208C0000202B
:10112C00900000209400002080B485B000AF154BD7
:10113C009B69144A43F001039361124B9B6903F0C2
:10114C000103BB60BB680F4BDB690E4A43F0805355
:10115C00D3610C4BDB6903F080537B607B680A4BDB
:10116C005B68FB60FB6823F0E063FB60FB6843F0AB
:10117C008063FB60044AFB68536000BF1437BD46B4
:10118C0080BC7047001002400000014080B584B064
:10119C0000AF78607B681B68B3F1804F13D10C4BA8
:1011AC00DB690B4A43F00103D361094BDB6903F0A4
:1011BC000103FB60FB68002200211C2000F0A1F958
:1011CC001C2000F0BAF900BF1037BD4680BD00BF2F
:1011DC000010024080B400AFFEE780B400AFFEE721
:1011EC0080B400AFFEE780B400AFFEE780B400AF80
:1011FC00FEE780B400AF00BFBD4680BC704780B432
:10120C0000AF00BFBD4680BC704780B400AF00BFCC
:10121C00BD4680BC704780B500AF00F07FF800BFC2
:10122C0080BD000080B500AF024800F0CFFF00BFCA
:10123C0080BD00BF9C00002080B400AF00BFBD4645
:10124C0080BC70470C480D490D4A002302E0D4586D
:10125C00C4500433C4188C42F9D30A4A0A4C0023F4
:10126C0001E013600432A242FBD3FFF7E5FF01F06B
:10127C00F5FAFFF7B1FD7047000000204400002094
:10128C000029000844000020E8000020FEE70000D0
:10129C0080B500AF084B1B68074A43F0100313607E
:1012AC00032000F023F90F2000F008F8FFF73CFFB3
:1012BC000023184680BD00BF0020024080B582B0DC
:1012CC0000AF7860124B1A68124B1B7819464FF41A
:1012DC007A73B3FBF1F3B2FBF3F3184600F03BF96E
:1012EC000346002B01D001230EE07B680F2B0AD89C
:1012FC00002279684FF0FF3000F003F9064A7B6852
:10130C001360002300E0012318460837BD4680BD5A
:10131C0038000020400000203C00002080B400AFCA
:10132C00054B1B781A46054B1B681344034A136084
:10133C0000BFBD4680BC704740000020E400002088
:10134C0080B400AF024B1B681846BD4680BC70478A
:10135C00E400002080B485B000AF78607B6803F0B7
:10136C000703FB600C4BDB68BB60BA684FF6FF03EE
:10137C001340BB60FB681A02BB68134343F0BF63A6
:10138C0043F40033BB60044ABB68D36000BF14371E
:10139C00BD4680BC704700BF00ED00E080B400AFDC
:1013AC00044BDB681B0A03F007031846BD4680BCE0
:1013BC00704700BF00ED00E080B483B000AF03467F
:1013CC00FB7197F90730002B0BDBFB7903F01F0245
:1013DC00064997F907305B09012000FA02F241F83F
:1013EC00232000BF0C37BD4680BC704700E100E0F5
:1013FC0080B483B000AF03463960FB7197F90730B6
:10140C00002B0ADB3B68DAB20C4997F90730120162
:10141C00D2B20B4483F800230AE03B68DAB20849E5
:10142C00FB7903F00F03043B1201D2B20B441A7682
:10143C0000BF0C37BD4680BC704700BF00E100E028
:10144C0000ED00E080B489B000AFF860B9607A605C
:10145C00FB6803F00703FB61FB69C3F10703042B73
:10146C0028BF0423BB61FB690433062B02D9FB693B
:10147C00033B00E000237B614FF0FF32BB6902FAB3
:10148C0003F3DA43BB681A407B699A404FF0FF3193
:10149C007B6901FA03F3D9437B680B40134318466D
:1014AC002437BD4680BC704780B582B000AF7860F1
:1014BC007B68013BB3F1807F01D301230FE00A4A23
:1014CC007B68013B53600F214FF0FF30FFF790FF1B
:1014DC00054B00229A60044B07221A600023184621
:1014EC000837BD4680BD00BF10E000E080B582B07B
:1014FC0000AF78607868FFF72DFF00BF0837BD4656
:10150C0080BD80B586B000AF0346B9607A60FB73CE
:10151C0000237B61FFF742FF78617A68B9687869CC
:10152C00FFF790FF024697F90F3011461846FFF768
:10153C005FFF00BF1837BD4680BD80B582B000AFDD
:10154C000346FB7197F907301846FFF735FF00BFCC
:10155C000837BD4680BD80B582B000AF7860786832
:10156C00FFF7A2FF034618460837BD4680BD0000B2
:10157C0080B48BB000AF7860396000237B620023AD
:10158C003B6248E101227B6A02FA03F3FB613B6890
:10159C001B68FA691340BB61BA69FB699A4240F057
:1015AC0037813B685B68A34A93425ED0A14A934261
:1015BC0075D8A14A934258D09F4A93426FD89F4AFC
:1015CC00934252D09D4A934269D89D4A93424CD043
:1015DC009B4A934263D89B4A934246D0994A934282
:1015EC005DD8122B2AD8122B59D801A252F823F00D
:1015FC00771600085116000863160008A516000897
:10160C00AB160008AB160008AB160008AB160008AA
:10161C00AB160008AB160008AB160008AB1600089A
:10162C00AB160008AB160008AB160008AB1600088A
:10163C00AB160008591600086D160008824A934232
:10164C0013D02CE03B68DB683B6229E03B68DB682D
:10165C0004333B6224E03B68DB6808333B621FE0E9
:10166C003B68DB680C333B621AE03B689B68002BE1
:10167C0002D104233B6213E03B689B68012B05D12C
:10168C0008233B627B68FA691A6109E008233B6214
:10169C007B68FA695A6103E000233B6200E000BFFB
:1016AC00BB69FF2B01D87B6801E07B6804337B614D
:1016BC00BB69FF2B02D87B6A9B0002E07B6A083B6C
:1016CC009B003B617B691A680F213B6901FA03F3AC
:1016DC00DB431A40396A3B6901FA03F31A437B690D
:1016EC001A603B685B6803F08053002B00F090801D
:1016FC00564B9B69554A43F001039361534B9B69CD
:10170C0003F00103BB60BB68514A7B6A9B08023340
:10171C0052F82330FB607B6A03F003039B000F221B
:10172C0002FA03F3DB43FA681340FB607B68494A17
:10173C0093420DD07B68484A934207D07B68474A56
:10174C00934201D1022304E0032302E0012300E0D1
:10175C0000237A6A02F0030292009340FA68134362
:10176C00FB603B497B6A9B080233FA6841F82320F3
:10177C003B685B6803F48033002B06D0384B1A6847
:10178C003749BB6913430B6006E0354B1A68BB69DC
:10179C00DB43334913400B603B685B6803F4003355
:1017AC00002B06D02E4B5A682D49BB6913434B6056
:1017BC0006E02B4B5A68BB69DB43294913404B604D
:1017CC003B685B6803F48013002B06D0244B9A68AB
:1017DC002349BB6913438B6006E0214B9A68BB69B4
:1017EC00DB431F4913408B603B685B6803F40013B9
:1017FC00002B06D01A4BDA681949BB691343CB602E
:10180C0006E0174BDA68BB69DB4315491340CB6024
:10181C007B6A01337B623B681A687B6A22FA03F3AA
:10182C00002B7FF4AFAE00BF00BF2C37BD4680BC91
:10183C00704700BF00003210000031100000221071
:10184C0000002110000012100000111000100240C6
:10185C000000014000080140000C01400010014054
:10186C000004014080B485B000AF78600B467B80EB
:10187C007B689A687B881340002B02D00123FB7392
:10188C0001E00023FB73FB7B18461437BD4680BC7C
:10189C00704780B483B000AF78600B467B801346F2
:1018AC007B707B78002B03D07A887B681A6103E00D
:1018BC007B881A047B681A6100BF0C37BD4680BC5C
:1018CC007047000080B586B000AF78607B68002B55
:1018DC0001D101236CE27B681B6803F00103002B30
:1018EC0000F08780924B5B6803F00C03042B0CD048
:1018FC008F4B5B6803F00C03082B12D18C4B5B688D
:10190C0003F48033B3F5803F0BD1894B1B6803F490
:10191C000033002B6CD07B685B68002B68D10123F3
:10192C0046E27B685B68B3F5803F06D1804B1B6851
:10193C007F4A43F4803313602EE07B685B68002B96
:10194C000CD17B4B1B687A4A23F480331360784BA1
:10195C001B68774A23F4802313601DE07B685B6867
:10196C00B3F5A02F0CD1724B1B68714A43F4802342
:10197C0013606F4B1B686E4A43F4803313600BE0AB
:10198C006B4B1B686A4A23F480331360684B1B68EB
:10199C00674A23F4802313607B685B68002B13D0A9
:1019AC00FFF7CEFC386108E0FFF7CAFC02463B6942
:1019BC00D31A642B01D90323FAE15D4B1B6803F4A2
:1019CC000033002BF0D014E0FFF7BAFC386108E0CC
:1019DC00FFF7B6FC02463B69D31A642B01D90323EB
:1019EC00E6E1534B1B6803F40033002BF0D100E00D
:1019FC0000BF7B681B6803F00203002B63D04C4BC9
:101A0C005B6803F00C03002B0BD0494B5B6803F0B5
:101A1C000C03082B1CD1464B5B6803F48033002B62
:101A2C0016D1434B1B6803F00203002B05D07B68D7
:101A3C001B69012B01D00123BAE13D4B1B6823F03C
:101A4C00F8027B685B69DB00394913430B603AE0B1
:101A5C007B681B69002B20D0364B01221A60FFF7E4
:101A6C006FFC386108E0FFF76BFC02463B69D31A48
:101A7C00022B01D903239BE12D4B1B6803F00203BE
:101A8C00002BF0D02A4B1B6823F0F8027B685B69B3
:101A9C00DB00274913430B6015E0264B00221A602C
:101AAC00FFF74EFC386108E0FFF74AFC02463B6941
:101ABC00D31A022B01D903237AE11D4B1B6803F0C7
:101ACC000203002BF0D17B681B6803F00803002B8A
:101ADC003AD07B689B69002B19D0174B01221A60F6
:101AEC00FFF72EFC386108E0FFF72AFC02463B6941
:101AFC00D31A022B01D903235AE10D4B5B6A03F075
:101B0C000203002BF0D0012000F0A6FA1CE00A4BD7
:101B1C0000221A60FFF714FC38610FE0FFF710FC8D
:101B2C0002463B69D31A022B08D9032340E100BFBC
:101B3C000010024000004242800442429E4B5B6A0D
:101B4C0003F00203002BE9D17B681B6803F004034C
:101B5C00002B00F0A6800023FB75974BDB6903F08C
:101B6C008053002B0DD1944BDB69934A43F0805387
:101B7C00D361914BDB6903F08053BB60BB680123DD
:101B8C00FB758E4B1B6803F48073002B18D18B4BA9
:101B9C001B688A4A43F480731360FFF7D1FB3861EA
:101BAC0008E0FFF7CDFB02463B69D31A642B01D941
:101BBC000323FDE0814B1B6803F48073002BF0D0F2
:101BCC007B68DB68012B06D17B4B1B6A7A4A43F09E
:101BDC00010313622DE07B68DB68002B0CD1764B84
:101BEC001B6A754A23F001031362734B1B6A724A1A
:101BFC0023F0040313621CE07B68DB68052B0CD11B
:101C0C006D4B1B6A6C4A43F0040313626A4B1B6AEC
:101C1C00694A43F0010313620BE0674B1B6A664A87
:101C2C0023F001031362644B1B6A634A23F0040321
:101C3C0013627B68DB68002B15D0FFF781FB3861E2
:101C4C000AE0FFF77DFB02463B69D31A41F288326A
:101C5C00934201D90323ABE0574B1B6A03F00203F9
:101C6C00002BEED014E0FFF76BFB38610AE0FFF7B6
:101C7C0067FB02463B69D31A41F28832934201D981
:101C8C00032395E04C4B1B6A03F00203002BEED1AF
:101C9C00FB7D012B05D1484BDB69474A23F0805370
:101CAC00D3617B68DB69002B00F08180424B5B6861
:101CBC0003F00C03082B61D07B68DB69022B46D147
:101CCC003F4B00221A60FFF73BFB386108E0FFF73F
:101CDC0037FB02463B69D31A022B01D9032367E079
:101CEC00354B1B6803F00073002BF0D17B681B6A2B
:101CFC00B3F5803F08D1304B5B6823F400327B682E
:101D0C009B682D4913434B602B4B5B6823F4741277
:101D1C007B68196A7B685B6A0B43274913434B60EA
:101D2C00274B01221A60FFF70BFB386108E0FFF725
:101D3C0007FB02463B69D31A022B01D9032337E078
:101D4C001D4B1B6803F00073002BF0D02FE01C4BD5
:101D5C0000221A60FFF7F4FA386108E0FFF7F0FA96
:101D6C0002463B69D31A022B01D9032320E0124B04
:101D7C001B6803F00073002BF0D118E07B68DB6963
:101D8C00012B01D1012313E00B4B5B68FB60FB685B
:101D9C0003F480327B681B6A9A4206D1FB6803F419
:101DAC0070127B685B6A9A4201D0012300E0002329
:101DBC0018461837BD4680BD001002400070004028
:101DCC006000424280B584B000AF786039607B68B7
:101DDC00002B01D10123D0E06A4B1B6803F00703F1
:101DEC003A689A4210D9674B1B6823F00702654981
:101DFC003B6813430B60634B1B6803F007033A68A3
:101E0C009A4201D00123B8E07B681B6803F00203FF
:101E1C00002B20D07B681B6803F00403002B05D03B
:101E2C00594B5B68584A43F4E06353607B681B680A
:101E3C0003F00803002B05D0534B5B68524A43F464
:101E4C0060535360504B5B6823F0F0027B689B68D7
:101E5C004D4913434B607B681B6803F00103002B57
:101E6C0040D07B685B68012B07D1474B1B6803F4A0
:101E7C000033002B15D101237FE07B685B68022BBC
:101E8C0007D1414B1B6803F00073002B09D10123D0
:101E9C0073E03D4B1B6803F00203002B01D10123BF
:101EAC006BE0394B5B6823F003027B685B68364957
:101EBC0013434B60FFF744FAF8600AE0FFF740FA6F
:101ECC000246FB68D31A41F28832934201D90323AC
:101EDC0053E02D4B5B6803F00C027B685B689B0046
:101EEC009A42EBD1274B1B6803F007033A689A42DE
:101EFC0010D2244B1B6823F0070222493B68134382
:101F0C000B60204B1B6803F007033A689A4201D020
:101F1C00012332E07B681B6803F00403002B08D01C
:101F2C00194B5B6823F4E0627B68DB68164913434A
:101F3C004B607B681B6803F00803002B09D0124B25
:101F4C005B6823F460527B681B69DB000E4913430A
:101F5C004B6000F021F802460B4B5B681B0903F049
:101F6C000F030A49CB5C22FA03F3094A1360094BAD
:101F7C001B681846FFF7A2F9002318461037BD4618
:101F8C0080BD00BF0020024000100240E82800087D
:101F9C00380000203C00002090B48AB000AF2A4BDF
:101FAC003C1D0FCB84E80F0040F201233B80002343
:101FBC00FB610023BB6100237B6200237B61002358
:101FCC003B62224B5B68FB61FB6903F00C03042B47
:101FDC0002D0082B03D02DE01D4B3B622DE0FB699A
:101FEC009B0C03F00F0307F12802134413F8243C55
:101FFC007B61FB6903F48033002B13D0134B5B68BC
:10200C005B0C03F0010307F12802134413F8283C7E
:10201C00BB617B690E4A02FB03F2BB69B2FBF3F3B3
:10202C007B6204E07B690B4A02FB03F37B627B6AF5
:10203C003B6202E0064B3B6200BF3B6A1846283706
:10204C00BD4690BC704700BFD82800080010024065
:10205C0000127A0000093D0080B485B000AF7860B2
:10206C000A4B1B680A4AA2FB03235B0A7A6802FB31
:10207C0003F3FB6000BFFB685A1EFA60002BF9D11A
:10208C0000BF00BF1437BD4680BC7047380000202D
:10209C00D34D621080B582B000AF78607B68002BA6
:1020AC0001D1012341E07B6893F83D30DBB2002B7A
:1020BC0006D17B68002283F83C207868FFF766F82D
:1020CC007B68022283F83D207B681A687B680433A6
:1020DC001946104600F06AFA7B68012283F8462004
:1020EC007B68012283F83E207B68012283F83F2025
:1020FC007B68012283F840207B68012283F8412011
:10210C007B68012283F842207B68012283F84320FC
:10211C007B68012283F844207B68012283F84520E8
:10212C007B68012283F83D20002318460837BD4602
:10213C0080BD000080B485B000AF78607B6893F8F8
:10214C003D30DBB2012B01D0012335E07B6802224C
:10215C0083F83D207B681B68DA687B681B6842F05B
:10216C000102DA607B681B68164A934209D07B68CF
:10217C001B68B3F1804F04D07B681B68124A9342F2
:10218C0011D17B681B689B6803F00703FB60FB683D
:10219C00062B10D07B681B681A687B681B6842F0A2
:1021AC0001021A6007E07B681B681A687B681B6871
:1021BC0042F001021A60002318461437BD4680BC59
:1021CC00704700BF002C01400004004080B582B075
:1021DC0000AF78607B681B681B6903F00203022B5D
:1021EC0022D17B681B68DB6803F00203022B1BD136
:1021FC007B681B686FF002021A617B6801221A77F8
:10220C007B681B689B6903F00303002B03D0786881
:10221C0000F0B1F905E0786800F0A4F9786800F0F6
:10222C00B3F97B6800221A777B681B681B6903F083
:10223C000403042B22D17B681B68DB6803F00403C6
:10224C00042B1BD17B681B686FF004021A617B683E
:10225C0002221A777B681B689B6903F44073002B7E
:10226C0003D0786800F087F905E0786800F07AF917
:10227C00786800F089F97B6800221A777B681B6804
:10228C001B6903F00803082B22D17B681B68DB68F1
:10229C0003F00803082B1BD17B681B686FF0080246
:1022AC001A617B6804221A777B681B68DB6903F070
:1022BC000303002B03D0786800F05DF905E0786823
:1022CC0000F050F9786800F05FF97B6800221A770B
:1022DC007B681B681B6903F01003102B22D17B68F1
:1022EC001B68DB6803F01003102B1BD17B681B6889
:1022FC006FF010021A617B6808221A777B681B68E2
:10230C00DB6903F44073002B03D0786800F033F9D9
:10231C0005E0786800F026F9786800F035F97B68FC
:10232C0000221A777B681B681B6903F00103012BE1
:10233C000ED17B681B68DB6803F00103012B07D10E
:10234C007B681B686FF001021A617868FEF748FE23
:10235C007B681B681B6903F08003802B0ED17B68A4
:10236C001B68DB6803F08003802B07D17B681B683C
:10237C006FF080021A61786800F067FA7B681B685E
:10238C001B6903F04003402B0ED17B681B68DB6894
:10239C0003F04003402B07D17B681B686FF04002B1
:1023AC001A61786800F0F9F87B681B681B6903F008
:1023BC002003202B0ED17B681B68DB6803F0200305
:1023CC00202B07D17B681B686FF020021A6178689C
:1023DC0000F032FA00BF0837BD4680BD80B584B02E
:1023EC0000AF786039607B6893F83C30012B01D1E9
:1023FC000223B3E07B68012283F83C207B68022235
:10240C0083F83D207B681B689B68FB60FB6823F0AE
:10241C007703FB60FB6823F47F43FB607B681B68DE
:10242C00FA689A603B681B68B3F5005F3ED0B3F561
:10243C00005F00F28780B3F5805F00F08580B3F514
:10244C00805F7FD8702B1AD0702B7BD8602B50D02C
:10245C00602B77D8502B3CD0502B73D8402B58D0B6
:10246C00402B6FD8302B64D0302B6BD8202B60D006
:10247C00202B67D8002B5CD0102B5AD062E07B68E5
:10248C0018683B6899683B685A683B68DB6800F0E1
:10249C005CF97B681B689B68FB60FB6843F0770307
:1024AC00FB607B681B68FA689A604EE07B68186872
:1024BC003B6899683B685A683B68DB6800F045F9F3
:1024CC007B681B689A687B681B6842F480429A6040
:1024DC003BE07B6818683B6859683B68DB681A46C8
:1024EC0000F0BCF87B681B685021184600F013F90B
:1024FC002BE07B6818683B6859683B68DB681A46B8
:10250C0000F0DAF87B681B686021184600F003F9CC
:10251C001BE07B6818683B6859683B68DB681A46A7
:10252C0000F09CF87B681B684021184600F0F3F81B
:10253C000BE07B681A683B681B681946104600F074
:10254C00EAF802E000BF00E000BF7B68012283F8DC
:10255C003D207B68002283F83C200023184610376E
:10256C00BD4680BD80B483B000AF786000BF0C372F
:10257C00BD4680BC704780B483B000AF786000BFAC
:10258C000C37BD4680BC704780B483B000AF786018
:10259C0000BF0C37BD4680BC704780B483B000AF21
:1025AC00786000BF0C37BD4680BC704780B485B0E6
:1025BC0000AF786039607B681B68FB607B68254ADC
:1025CC00934207D07B68B3F1804F03D07B68224ADB
:1025DC00934208D1FB6823F07003FB603B685B6897
:1025EC00FA681343FB607B681A4A934207D07B68F6
:1025FC00B3F1804F03D07B68174A934208D1FB6834
:10260C0023F44073FB603B68DB68FA681343FB60A0
:10261C00FB6823F080023B685B691343FB607B68BB
:10262C00FA681A603B689A687B68DA623B681A68D9
:10263C007B689A627B68074A934203D13B681A69AC
:10264C007B681A637B6801225A6100BF1437BD4650
:10265C0080BC7047002C01400004004080B487B05F
:10266C0000AFF860B9607A60FB681B6A7B61FB683D
:10267C001B6A23F00102FB681A62FB689B693B61D1
:10268C003B6923F0F0033B617B681B013A69134300
:10269C003B617B6923F00A037B617A69BB68134356
:1026AC007B61FB683A699A61FB687A691A6200BFC0
:1026BC001C37BD4680BC704780B487B000AFF86053
:1026CC00B9607A60FB681B6A23F01002FB681A621F
:1026DC00FB689B697B61FB681B6A3B617B6923F42C
:1026EC0070437B617B681B037A6913437B613B6995
:1026FC0023F0A0033B61BB681B013A6913433B61A8
:10270C00FB687A699A61FB683A691A6200BF1C37E8
:10271C00BD4680BC704780B485B000AF786039602E
:10272C007B689B68FB60FB6823F07003FB603A6876
:10273C00FB68134343F00703FB607B68FA689A60FD
:10274C0000BF1437BD4680BC704780B487B000AF63
:10275C00F860B9607A603B60FB689B687B617B6961
:10276C0023F47F437B613B681A027B681A43BB6886
:10277C0013437A6913437B61FB687A699A6000BFE3
:10278C001C37BD4680BC704780B485B000AF786004
:10279C0039607B6893F83C30012B01D1022341E076
:1027AC007B68012283F83C207B68022283F83D2061
:1027BC007B681B685B68FB607B681B689B68BB6005
:1027CC00FB6823F07003FB603B681B68FA681343DB
:1027DC00FB607B681B68FA685A607B681B68144A4C
:1027EC00934209D07B681B68B3F1804F04D07B689F
:1027FC001B68104A93420CD1BB6823F08003BB606A
:10280C003B685B68BA681343BB607B681B68BA683B
:10281C009A607B68012283F83D207B68002283F854
:10282C003C20002318461437BD4680BC704700BFBF
:10283C00002C01400004004080B483B000AF7860ED
:10284C0000BF0C37BD4680BC704780B483B000AF6E
:10285C00786000BF0C37BD4680BC704770B5002651
:10286C000C4D0D4C641BA410A64209D100F022F8AB
:10287C0000260A4D0A4C641BA410A64205D170BD5B
:10288C0055F8043B98470136EEE755F8043B98475A
:10289C000136F2E7F8280008F8280008F8280008A4
:1028AC00FC28000803460244934200D1704703F809
:1028BC00011BF9E7F8B500BFF8BC08BC9E46704791
:0C28CC00F8B500BFF8BC08BC9E46704781
:1028D80002030405060708090A0B0C0D0E0F101059
:1028E80000000000000000000102030406070809B8
:0428F80031010008A2
:0428FC000D010008C2
:1029000001000000010000000100000001000000C3
:102910002C01000001000000010000000100000087
:10292000010000002C010000010000000100000077
:1029300001000000010000000024F400100000006D
:042940000100000092
:04000005080012518C
:00000001FF
